:100000000C942A000C9434000C9434000C943400AA
:100010000C9434000C9434000C9434000C94340090
:100020000C9434000C9434000C9434000C94340080
:100030000C9434000C9434000C9434000C94340070
:100040000C9434000C9434000C9434000C94340060
:100050000C94340011241FBECFE5D8E0DEBFCDBF25
:100060000E9436000C9451000C94000087B381600C
:1000700087BB81E088BB2FEF83ED90E32150804068
:100080009040E1F700C0000088B38E7F88BB2FEF5F
:1000900083ED90E3215080409040E1F700C00000E4
:0600A000E8CFF894FFCF49
:00000001FF
